{
  "_format": "hh-sol-artifact-1",
  "contractName": "Funcles",
  "sourceName": "contracts/Funcles.sol",
  "abi": [
    {
      "inputs": [
        {
          "internalType": "uint256",
          "name": "_maxSupply",
          "type": "uint256"
        },
        {
          "internalType": "uint256",
          "name": "_FUNCLES_VAULT",
          "type": "uint256"
        }
      ],
      "stateMutability": "nonpayable",
      "type": "constructor"
    },
    {
      "anonymous": false,
      "inputs": [
        {
          "indexed": true,
          "internalType": "address",
          "name": "owner",
          "type": "address"
        },
        {
          "indexed": true,
          "internalType": "address",
          "name": "approved",
          "type": "address"
        },
        {
          "indexed": true,
          "internalType": "uint256",
          "name": "tokenId",
          "type": "uint256"
        }
      ],
      "name": "Approval",
      "type": "event"
    },
    {
      "anonymous": false,
      "inputs": [
        {
          "indexed": true,
          "internalType": "address",
          "name": "owner",
          "type": "address"
        },
        {
          "indexed": true,
          "internalType": "address",
          "name": "operator",
          "type": "address"
        },
        {
          "indexed": false,
          "internalType": "bool",
          "name": "approved",
          "type": "bool"
        }
      ],
      "name": "ApprovalForAll",
      "type": "event"
    },
    {
      "anonymous": false,
      "inputs": [
        {
          "indexed": true,
          "internalType": "address",
          "name": "previousOwner",
          "type": "address"
        },
        {
          "indexed": true,
          "internalType": "address",
          "name": "newOwner",
          "type": "address"
        }
      ],
      "name": "OwnershipTransferred",
      "type": "event"
    },
    {
      "anonymous": false,
      "inputs": [
        {
          "indexed": true,
          "internalType": "address",
          "name": "from",
          "type": "address"
        },
        {
          "indexed": true,
          "internalType": "address",
          "name": "to",
          "type": "address"
        },
        {
          "indexed": true,
          "internalType": "uint256",
          "name": "tokenId",
          "type": "uint256"
        }
      ],
      "name": "Transfer",
      "type": "event"
    },
    {
      "inputs": [],
      "name": "FUNCLES_VAULT",
      "outputs": [
        {
          "internalType": "uint256",
          "name": "",
          "type": "uint256"
        }
      ],
      "stateMutability": "view",
      "type": "function"
    },
    {
      "inputs": [],
      "name": "FUNLIST_LIMIT",
      "outputs": [
        {
          "internalType": "uint256",
          "name": "",
          "type": "uint256"
        }
      ],
      "stateMutability": "view",
      "type": "function"
    },
    {
      "inputs": [],
      "name": "FunclesToVault",
      "outputs": [
        {
          "internalType": "bool",
          "name": "",
          "type": "bool"
        }
      ],
      "stateMutability": "view",
      "type": "function"
    },
    {
      "inputs": [],
      "name": "MaxFunclesPerAddress",
      "outputs": [
        {
          "internalType": "uint256",
          "name": "",
          "type": "uint256"
        }
      ],
      "stateMutability": "view",
      "type": "function"
    },
    {
      "inputs": [],
      "name": "PRICE",
      "outputs": [
        {
          "internalType": "uint256",
          "name": "",
          "type": "uint256"
        }
      ],
      "stateMutability": "view",
      "type": "function"
    },
    {
      "inputs": [
        {
          "internalType": "address",
          "name": "to",
          "type": "address"
        },
        {
          "internalType": "uint256",
          "name": "tokenId",
          "type": "uint256"
        }
      ],
      "name": "approve",
      "outputs": [],
      "stateMutability": "nonpayable",
      "type": "function"
    },
    {
      "inputs": [
        {
          "internalType": "address",
          "name": "owner",
          "type": "address"
        }
      ],
      "name": "balanceOf",
      "outputs": [
        {
          "internalType": "uint256",
          "name": "",
          "type": "uint256"
        }
      ],
      "stateMutability": "view",
      "type": "function"
    },
    {
      "inputs": [],
      "name": "baseExtension",
      "outputs": [
        {
          "internalType": "string",
          "name": "",
          "type": "string"
        }
      ],
      "stateMutability": "view",
      "type": "function"
    },
    {
      "inputs": [],
      "name": "baseURI",
      "outputs": [
        {
          "internalType": "string",
          "name": "",
          "type": "string"
        }
      ],
      "stateMutability": "view",
      "type": "function"
    },
    {
      "inputs": [
        {
          "internalType": "uint256",
          "name": "tokenId",
          "type": "uint256"
        }
      ],
      "name": "getApproved",
      "outputs": [
        {
          "internalType": "address",
          "name": "",
          "type": "address"
        }
      ],
      "stateMutability": "view",
      "type": "function"
    },
    {
      "inputs": [
        {
          "internalType": "address",
          "name": "owner",
          "type": "address"
        },
        {
          "internalType": "address",
          "name": "operator",
          "type": "address"
        }
      ],
      "name": "isApprovedForAll",
      "outputs": [
        {
          "internalType": "bool",
          "name": "",
          "type": "bool"
        }
      ],
      "stateMutability": "view",
      "type": "function"
    },
    {
      "inputs": [],
      "name": "maxSupply",
      "outputs": [
        {
          "internalType": "uint256",
          "name": "",
          "type": "uint256"
        }
      ],
      "stateMutability": "view",
      "type": "function"
    },
    {
      "inputs": [
        {
          "internalType": "uint256",
          "name": "numberOfFuncles",
          "type": "uint256"
        }
      ],
      "name": "mint",
      "outputs": [],
      "stateMutability": "payable",
      "type": "function"
    },
    {
      "inputs": [
        {
          "internalType": "bytes32[]",
          "name": "merkleProof",
          "type": "bytes32[]"
        },
        {
          "internalType": "uint256",
          "name": "numberOfFuncles",
          "type": "uint256"
        }
      ],
      "name": "mintWhitelist",
      "outputs": [],
      "stateMutability": "payable",
      "type": "function"
    },
    {
      "inputs": [],
      "name": "mintstatus",
      "outputs": [
        {
          "internalType": "enum Funcles.Status",
          "name": "",
          "type": "uint8"
        }
      ],
      "stateMutability": "view",
      "type": "function"
    },
    {
      "inputs": [],
      "name": "name",
      "outputs": [
        {
          "internalType": "string",
          "name": "",
          "type": "string"
        }
      ],
      "stateMutability": "view",
      "type": "function"
    },
    {
      "inputs": [],
      "name": "owner",
      "outputs": [
        {
          "internalType": "address",
          "name": "",
          "type": "address"
        }
      ],
      "stateMutability": "view",
      "type": "function"
    },
    {
      "inputs": [
        {
          "internalType": "uint256",
          "name": "tokenId",
          "type": "uint256"
        }
      ],
      "name": "ownerOf",
      "outputs": [
        {
          "internalType": "address",
          "name": "",
          "type": "address"
        }
      ],
      "stateMutability": "view",
      "type": "function"
    },
    {
      "inputs": [
        {
          "internalType": "bool",
          "name": "_state",
          "type": "bool"
        }
      ],
      "name": "pausefunclesvault",
      "outputs": [],
      "stateMutability": "nonpayable",
      "type": "function"
    },
    {
      "inputs": [],
      "name": "renounceOwnership",
      "outputs": [],
      "stateMutability": "nonpayable",
      "type": "function"
    },
    {
      "inputs": [],
      "name": "reservedFuncles",
      "outputs": [],
      "stateMutability": "nonpayable",
      "type": "function"
    },
    {
      "inputs": [
        {
          "internalType": "uint256",
          "name": "tokenId",
          "type": "uint256"
        },
        {
          "internalType": "uint256",
          "name": "Price",
          "type": "uint256"
        }
      ],
      "name": "royaltyInfo",
      "outputs": [
        {
          "internalType": "address",
          "name": "receiver",
          "type": "address"
        },
        {
          "internalType": "uint256",
          "name": "royaltyAmount",
          "type": "uint256"
        }
      ],
      "stateMutability": "view",
      "type": "function"
    },
    {
      "inputs": [
        {
          "internalType": "address",
          "name": "from",
          "type": "address"
        },
        {
          "internalType": "address",
          "name": "to",
          "type": "address"
        },
        {
          "internalType": "uint256",
          "name": "tokenId",
          "type": "uint256"
        }
      ],
      "name": "safeTransferFrom",
      "outputs": [],
      "stateMutability": "nonpayable",
      "type": "function"
    },
    {
      "inputs": [
        {
          "internalType": "address",
          "name": "from",
          "type": "address"
        },
        {
          "internalType": "address",
          "name": "to",
          "type": "address"
        },
        {
          "internalType": "uint256",
          "name": "tokenId",
          "type": "uint256"
        },
        {
          "internalType": "bytes",
          "name": "_data",
          "type": "bytes"
        }
      ],
      "name": "safeTransferFrom",
      "outputs": [],
      "stateMutability": "nonpayable",
      "type": "function"
    },
    {
      "inputs": [
        {
          "internalType": "address",
          "name": "operator",
          "type": "address"
        },
        {
          "internalType": "bool",
          "name": "approved",
          "type": "bool"
        }
      ],
      "name": "setApprovalForAll",
      "outputs": [],
      "stateMutability": "nonpayable",
      "type": "function"
    },
    {
      "inputs": [
        {
          "internalType": "string",
          "name": "_newBaseURI",
          "type": "string"
        }
      ],
      "name": "setBaseURI",
      "outputs": [],
      "stateMutability": "nonpayable",
      "type": "function"
    },
    {
      "inputs": [
        {
          "internalType": "address",
          "name": "_owner",
          "type": "address"
        }
      ],
      "name": "setOwner",
      "outputs": [],
      "stateMutability": "nonpayable",
      "type": "function"
    },
    {
      "inputs": [
        {
          "internalType": "uint256",
          "name": "_divisor",
          "type": "uint256"
        }
      ],
      "name": "setRoyaltyDivisor",
      "outputs": [],
      "stateMutability": "nonpayable",
      "type": "function"
    },
    {
      "inputs": [
        {
          "internalType": "uint8",
          "name": "_status",
          "type": "uint8"
        }
      ],
      "name": "setStatus",
      "outputs": [],
      "stateMutability": "nonpayable",
      "type": "function"
    },
    {
      "inputs": [
        {
          "internalType": "bytes32",
          "name": "merkleRoot",
          "type": "bytes32"
        }
      ],
      "name": "setWhitelistMerkleRoot",
      "outputs": [],
      "stateMutability": "nonpayable",
      "type": "function"
    },
    {
      "inputs": [],
      "name": "supply",
      "outputs": [
        {
          "internalType": "uint256",
          "name": "",
          "type": "uint256"
        }
      ],
      "stateMutability": "view",
      "type": "function"
    },
    {
      "inputs": [
        {
          "internalType": "bytes4",
          "name": "interfaceId",
          "type": "bytes4"
        }
      ],
      "name": "supportsInterface",
      "outputs": [
        {
          "internalType": "bool",
          "name": "",
          "type": "bool"
        }
      ],
      "stateMutability": "view",
      "type": "function"
    },
    {
      "inputs": [],
      "name": "symbol",
      "outputs": [
        {
          "internalType": "string",
          "name": "",
          "type": "string"
        }
      ],
      "stateMutability": "view",
      "type": "function"
    },
    {
      "inputs": [
        {
          "internalType": "uint256",
          "name": "tokenId",
          "type": "uint256"
        }
      ],
      "name": "tokenURI",
      "outputs": [
        {
          "internalType": "string",
          "name": "",
          "type": "string"
        }
      ],
      "stateMutability": "view",
      "type": "function"
    },
    {
      "inputs": [
        {
          "internalType": "address",
          "name": "from",
          "type": "address"
        },
        {
          "internalType": "address",
          "name": "to",
          "type": "address"
        },
        {
          "internalType": "uint256",
          "name": "tokenId",
          "type": "uint256"
        }
      ],
      "name": "transferFrom",
      "outputs": [],
      "stateMutability": "nonpayable",
      "type": "function"
    },
    {
      "inputs": [
        {
          "internalType": "address",
          "name": "newOwner",
          "type": "address"
        }
      ],
      "name": "transferOwnership",
      "outputs": [],
      "stateMutability": "nonpayable",
      "type": "function"
    },
    {
      "inputs": [],
      "name": "whitelistMerkleRoot",
      "outputs": [
        {
          "internalType": "bytes32",
          "name": "",
          "type": "bytes32"
        }
      ],
      "stateMutability": "view",
      "type": "function"
    },
    {
      "inputs": [],
      "name": "withdraw",
      "outputs": [],
      "stateMutability": "nonpayable",
      "type": "function"
    }
  ],
  "bytecode": "0x60806040526004600855603c600955610d05600a556000600b556040518060400160405280600581526020017f2e6a736f6e000000000000000000000000000000000000000000000000000000815250600c90805190602001906200006692919062000342565b506014600d557f89b051474330d6eda3afac4fd427a8a43875ca83d44233ad4ac3fa8bc93d936560001b600f5560405180608001604052806053815260200162004b076053913960109080519060200190620000c492919062000342565b506000601160006101000a81548160ff0219169083151502179055507366aa2272019fb0ce4bccb5b82f0469ee9e97242f601160016101000a81548173ffffffffffffffffffffffffffffffffffffffff021916908373ffffffffffffffffffffffffffffffffffffffff1602179055506000601160156101000a81548160ff021916908360028111156200015e576200015d620003f2565b5b02179055503480156200017057600080fd5b5060405162004b5a38038062004b5a833981810160405281019062000196919062000461565b6040518060400160405280600781526020017f46756e636c6573000000000000000000000000000000000000000000000000008152506040518060400160405280600781526020017f46554e434c45530000000000000000000000000000000000000000000000000081525081600090805190602001906200021a92919062000342565b5080600190805190602001906200023392919062000342565b505050620002566200024a6200027460201b60201c565b6200027c60201b60201c565b600160078190555081600a819055508060098190555050506200050d565b600033905090565b6000600660009054906101000a900473ffffffffffffffffffffffffffffffffffffffff16905081600660006101000a81548173ffffffffffffffffffffffffffffffffffffffff021916908373ffffffffffffffffffffffffffffffffffffffff1602179055508173ffffffffffffffffffffffffffffffffffffffff168173ffffffffffffffffffffffffffffffffffffffff167f8be0079c531659141344cd1fd0a4f28419497f9722a3daafe3b4186f6b6457e060405160405180910390a35050565b8280546200035090620004d7565b90600052602060002090601f016020900481019282620003745760008555620003c0565b82601f106200038f57805160ff1916838001178555620003c0565b82800160010185558215620003c0579182015b82811115620003bf578251825591602001919060010190620003a2565b5b509050620003cf9190620003d3565b5090565b5b80821115620003ee576000816000905550600101620003d4565b5090565b7f4e487b7100000000000000000000000000000000000000000000000000000000600052602160045260246000fd5b600080fd5b6000819050919050565b6200043b8162000426565b81146200044757600080fd5b50565b6000815190506200045b8162000430565b92915050565b600080604083850312156200047b576200047a62000421565b5b60006200048b858286016200044a565b92505060206200049e858286016200044a565b9150509250929050565b7f4e487b7100000000000000000000000000000000000000000000000000000000600052602260045260246000fd5b60006002820490506001821680620004f057607f821691505b60208210811415620005075762000506620004a8565b5b50919050565b6145ea806200051d6000396000f3fe6080604052600436106102255760003560e01c8063715018a611610123578063aa98e0c6116100ab578063cbc21b081161006f578063cbc21b08146107b6578063d5abeb01146107df578063e88fa9861461080a578063e985e9c514610833578063f2fde38b1461087057610225565b8063aa98e0c6146106d1578063b88d4fde146106fc578063bd32fb6614610725578063c66828621461074e578063c87b56dd1461077957610225565b806395d89b41116100f257806395d89b411461061a5780639a8e4bf914610645578063a0712d6814610670578063a22cb4651461068c578063a6d612f9146106b557610225565b8063715018a6146105825780638d2ed0bf146105995780638d859f3e146105c45780638da5cb5b146105ef57610225565b80632e49d78b116101b157806355f804b31161017557806355f804b31461048957806359d27929146104b25780636352211e146104dd5780636c0360eb1461051a57806370a082311461054557610225565b80632e49d78b146103de578063312df212146104075780633ccfd60b1461043257806342842e0e146104495780634a9202381461047257610225565b8063081812fc116101f8578063081812fc146102e8578063095ea7b31461032557806313af40351461034e57806323b872dd146103775780632a55205a146103a057610225565b806301ffc9a71461022a578063047fc9aa1461026757806304a29ec01461029257806306fdde03146102bd575b600080fd5b34801561023657600080fd5b50610251600480360381019061024c9190612b86565b610899565b60405161025e9190612bce565b60405180910390f35b34801561027357600080fd5b5061027c61097b565b6040516102899190612c02565b60405180910390f35b34801561029e57600080fd5b506102a7610981565b6040516102b49190612c94565b60405180910390f35b3480156102c957600080fd5b506102d2610994565b6040516102df9190612d48565b60405180910390f35b3480156102f457600080fd5b5061030f600480360381019061030a9190612d96565b610a26565b60405161031c9190612e04565b60405180910390f35b34801561033157600080fd5b5061034c60048036038101906103479190612e4b565b610aab565b005b34801561035a57600080fd5b5061037560048036038101906103709190612e8b565b610bc3565b005b34801561038357600080fd5b5061039e60048036038101906103999190612eb8565b610c4b565b005b3480156103ac57600080fd5b506103c760048036038101906103c29190612f0b565b610cab565b6040516103d5929190612f4b565b60405180910390f35b3480156103ea57600080fd5b5061040560048036038101906104009190612fad565b610d0e565b005b34801561041357600080fd5b5061041c610dcc565b6040516104299190612bce565b60405180910390f35b34801561043e57600080fd5b50610447610ddf565b005b34801561045557600080fd5b50610470600480360381019061046b9190612eb8565b610eaa565b005b34801561047e57600080fd5b50610487610eca565b005b34801561049557600080fd5b506104b060048036038101906104ab919061310f565b61102c565b005b3480156104be57600080fd5b506104c76110c2565b6040516104d49190612c02565b60405180910390f35b3480156104e957600080fd5b5061050460048036038101906104ff9190612d96565b6110c8565b6040516105119190612e04565b60405180910390f35b34801561052657600080fd5b5061052f61117a565b60405161053c9190612d48565b60405180910390f35b34801561055157600080fd5b5061056c60048036038101906105679190612e8b565b611208565b6040516105799190612c02565b60405180910390f35b34801561058e57600080fd5b506105976112c0565b005b3480156105a557600080fd5b506105ae611348565b6040516105bb9190612c02565b60405180910390f35b3480156105d057600080fd5b506105d961134d565b6040516105e69190612c02565b60405180910390f35b3480156105fb57600080fd5b50610604611359565b6040516106119190612e04565b60405180910390f35b34801561062657600080fd5b5061062f611383565b60405161063c9190612d48565b60405180910390f35b34801561065157600080fd5b5061065a611415565b6040516106679190612c02565b60405180910390f35b61068a60048036038101906106859190612d96565b61141b565b005b34801561069857600080fd5b506106b360048036038101906106ae9190613184565b6116a3565b005b6106cf60048036038101906106ca9190613224565b611824565b005b3480156106dd57600080fd5b506106e6611a8a565b6040516106f3919061329d565b60405180910390f35b34801561070857600080fd5b50610723600480360381019061071e9190613359565b611a90565b005b34801561073157600080fd5b5061074c60048036038101906107479190613408565b611af2565b005b34801561075a57600080fd5b50610763611b78565b6040516107709190612d48565b60405180910390f35b34801561078557600080fd5b506107a0600480360381019061079b9190612d96565b611c06565b6040516107ad9190612d48565b60405180910390f35b3480156107c257600080fd5b506107dd60048036038101906107d89190612d96565b611ca8565b005b3480156107eb57600080fd5b506107f4611d2e565b6040516108019190612c02565b60405180910390f35b34801561081657600080fd5b50610831600480360381019061082c9190613435565b611d34565b005b34801561083f57600080fd5b5061085a60048036038101906108559190613462565b611dcd565b6040516108679190612bce565b60405180910390f35b34801561087c57600080fd5b5061089760048036038101906108929190612e8b565b611e61565b005b60007f80ac58cd000000000000000000000000000000000000000000000000000000007bffffffffffffffffffffffffffffffffffffffffffffffffffffffff1916827bffffffffffffffffffffffffffffffffffffffffffffffffffffffff1916148061096457507f5b5e139f000000000000000000000000000000000000000000000000000000007bffffffffffffffffffffffffffffffffffffffffffffffffffffffff1916827bffffffffffffffffffffffffffffffffffffffffffffffffffffffff1916145b80610974575061097382611f59565b5b9050919050565b600b5481565b601160159054906101000a900460ff1681565b6060600080546109a3906134d1565b80601f01602080910402602001604051908101604052809291908181526020018280546109cf906134d1565b8015610a1c5780601f106109f157610100808354040283529160200191610a1c565b820191906000526020600020905b8154815290600101906020018083116109ff57829003601f168201915b5050505050905090565b6000610a3182611fc3565b610a70576040517f08c379a0000000000000000000000000000000000000000000000000000000008152600401610a6790613575565b60405180910390fd5b6004600083815260200190815260200160002060009054906101000a900473ffffffffffffffffffffffffffffffffffffffff169050919050565b6000610ab6826110c8565b90508073ffffffffffffffffffffffffffffffffffffffff168373ffffffffffffffffffffffffffffffffffffffff161415610b27576040517f08c379a0000000000000000000000000000000000000000000000000000000008152600401610b1e90613607565b60405180910390fd5b8073ffffffffffffffffffffffffffffffffffffffff16610b4661202f565b73ffffffffffffffffffffffffffffffffffffffff161480610b755750610b7481610b6f61202f565b611dcd565b5b610bb4576040517f08c379a0000000000000000000000000000000000000000000000000000000008152600401610bab90613699565b60405180910390fd5b610bbe8383612037565b505050565b610bcb61202f565b73ffffffffffffffffffffffffffffffffffffffff16610be9611359565b73ffffffffffffffffffffffffffffffffffffffff1614610c3f576040517f08c379a0000000000000000000000000000000000000000000000000000000008152600401610c3690613705565b60405180910390fd5b610c4881611e61565b50565b610c5c610c5661202f565b826120f0565b610c9b576040517f08c379a0000000000000000000000000000000000000000000000000000000008152600401610c9290613797565b60405180910390fd5b610ca68383836121ce565b505050565b600080610cb784611fc3565b610cf6576040517f08c379a0000000000000000000000000000000000000000000000000000000008152600401610ced90613803565b60405180910390fd5b308184610d039190613881565b915091509250929050565b610d1661202f565b73ffffffffffffffffffffffffffffffffffffffff16610d34611359565b73ffffffffffffffffffffffffffffffffffffffff1614610d8a576040517f08c379a0000000000000000000000000000000000000000000000000000000008152600401610d8190613705565b60405180910390fd5b8060ff166002811115610da057610d9f612c1d565b5b601160156101000a81548160ff02191690836002811115610dc457610dc3612c1d565b5b021790555050565b601160009054906101000a900460ff1681565b610de761202f565b73ffffffffffffffffffffffffffffffffffffffff16610e05611359565b73ffffffffffffffffffffffffffffffffffffffff1614610e5b576040517f08c379a0000000000000000000000000000000000000000000000000000000008152600401610e5290613705565b60405180910390fd5b60004790503373ffffffffffffffffffffffffffffffffffffffff166108fc829081150290604051600060405180830381858888f19350505050158015610ea6573d6000803e3d6000fd5b5050565b610ec583838360405180602001604052806000815250611a90565b505050565b610ed261202f565b73ffffffffffffffffffffffffffffffffffffffff16610ef0611359565b73ffffffffffffffffffffffffffffffffffffffff1614610f46576040517f08c379a0000000000000000000000000000000000000000000000000000000008152600401610f3d90613705565b60405180910390fd5b601160009054906101000a900460ff1615610f96576040517f08c379a0000000000000000000000000000000000000000000000000000000008152600401610f8d90613924565b60405180910390fd5b6000600190505b600954811015610ff357610fe0601160019054906101000a900473ffffffffffffffffffffffffffffffffffffffff1682600b54610fdb9190613944565b61242a565b8080610feb9061399a565b915050610f9d565b50600b54600960008282546110089190613944565b925050819055506000601160006101000a81548160ff021916908315150217905550565b61103461202f565b73ffffffffffffffffffffffffffffffffffffffff16611052611359565b73ffffffffffffffffffffffffffffffffffffffff16146110a8576040517f08c379a000000000000000000000000000000000000000000000000000000000815260040161109f90613705565b60405180910390fd5b80601090805190602001906110be929190612a77565b5050565b60095481565b6000806002600084815260200190815260200160002060009054906101000a900473ffffffffffffffffffffffffffffffffffffffff169050600073ffffffffffffffffffffffffffffffffffffffff168173ffffffffffffffffffffffffffffffffffffffff161415611171576040517f08c379a000000000000000000000000000000000000000000000000000000000815260040161116890613a55565b60405180910390fd5b80915050919050565b60108054611187906134d1565b80601f01602080910402602001604051908101604052809291908181526020018280546111b3906134d1565b80156112005780601f106111d557610100808354040283529160200191611200565b820191906000526020600020905b8154815290600101906020018083116111e357829003601f168201915b505050505081565b60008073ffffffffffffffffffffffffffffffffffffffff168273ffffffffffffffffffffffffffffffffffffffff161415611279576040517f08c379a000000000000000000000000000000000000000000000000000000000815260040161127090613ae7565b60405180910390fd5b600360008373ffffffffffffffffffffffffffffffffffffffff1673ffffffffffffffffffffffffffffffffffffffff168152602001908152602001600020549050919050565b6112c861202f565b73ffffffffffffffffffffffffffffffffffffffff166112e6611359565b73ffffffffffffffffffffffffffffffffffffffff161461133c576040517f08c379a000000000000000000000000000000000000000000000000000000000815260040161133390613705565b60405180910390fd5b6113466000612448565b565b600281565b67012dfb0cb5e8800081565b6000600660009054906101000a900473ffffffffffffffffffffffffffffffffffffffff16905090565b606060018054611392906134d1565b80601f01602080910402602001604051908101604052809291908181526020018280546113be906134d1565b801561140b5780601f106113e05761010080835404028352916020019161140b565b820191906000526020600020905b8154815290600101906020018083116113ee57829003601f168201915b5050505050905090565b60085481565b60028081111561142e5761142d612c1d565b5b601160159054906101000a900460ff1660028111156114505761144f612c1d565b5b14611490576040517f08c379a000000000000000000000000000000000000000000000000000000000815260040161148790613b79565b60405180910390fd5b60028111156114d4576040517f08c379a00000000000000000000000000000000000000000000000000000000081526004016114cb90613c0b565b60405180910390fd5b600a5481600b546114e59190613944565b1115611526576040517f08c379a000000000000000000000000000000000000000000000000000000000815260040161151d90613c77565b60405180910390fd5b60085481600e60003373ffffffffffffffffffffffffffffffffffffffff1673ffffffffffffffffffffffffffffffffffffffff168152602001908152602001600020546115749190613944565b111561157f57600080fd5b611587611359565b73ffffffffffffffffffffffffffffffffffffffff163373ffffffffffffffffffffffffffffffffffffffff1614611610578067012dfb0cb5e880006115cd9190613c97565b34101561160f576040517f08c379a000000000000000000000000000000000000000000000000000000000815260040161160690613d3d565b60405180910390fd5b5b6000600190505b600a54811161169f57600e60003373ffffffffffffffffffffffffffffffffffffffff1673ffffffffffffffffffffffffffffffffffffffff16815260200190815260200160002060008154809291906116709061399a565b919050555061168c3382600b546116879190613944565b61242a565b80806116979061399a565b915050611617565b5050565b6116ab61202f565b73ffffffffffffffffffffffffffffffffffffffff168273ffffffffffffffffffffffffffffffffffffffff161415611719576040517f08c379a000000000000000000000000000000000000000000000000000000000815260040161171090613da9565b60405180910390fd5b806005600061172661202f565b73ffffffffffffffffffffffffffffffffffffffff1673ffffffffffffffffffffffffffffffffffffffff16815260200190815260200160002060008473ffffffffffffffffffffffffffffffffffffffff1673ffffffffffffffffffffffffffffffffffffffff16815260200190815260200160002060006101000a81548160ff0219169083151502179055508173ffffffffffffffffffffffffffffffffffffffff166117d361202f565b73ffffffffffffffffffffffffffffffffffffffff167f17307eab39ab6107e8899845ad3d59bd9653f200f220920489ca2b5937696c31836040516118189190612bce565b60405180910390a35050565b8282600f5461189b838380806020026020016040519081016040528093929190818152602001838360200280828437600081840152601f19601f8201169050808301925050505050505082336040516020016118809190613e11565b6040516020818303038152906040528051906020012061250e565b6118da576040517f08c379a00000000000000000000000000000000000000000000000000000000081526004016118d190613e78565b60405180910390fd5b67012dfb0cb5e88000843481836118f19190613c97565b14611931576040517f08c379a000000000000000000000000000000000000000000000000000000000815260040161192890613ee4565b60405180910390fd5b6001600281111561194557611944612c1d565b5b601160159054906101000a900460ff16600281111561196757611966612c1d565b5b1461197157600080fd5b6003861061197e57600080fd5b348667012dfb0cb5e880006119939190613c97565b101561199e57600080fd5b600a5486600b546119af9190613944565b11156119f0576040517f08c379a00000000000000000000000000000000000000000000000000000000081526004016119e790613c77565b60405180910390fd5b6000600190505b600a548111611a7f57600e60003373ffffffffffffffffffffffffffffffffffffffff1673ffffffffffffffffffffffffffffffffffffffff1681526020019081526020016000206000815480929190611a509061399a565b9190505550611a6c3382600b54611a679190613944565b61242a565b8080611a779061399a565b9150506119f7565b505050505050505050565b600f5481565b611aa1611a9b61202f565b836120f0565b611ae0576040517f08c379a0000000000000000000000000000000000000000000000000000000008152600401611ad790613797565b60405180910390fd5b611aec84848484612525565b50505050565b611afa61202f565b73ffffffffffffffffffffffffffffffffffffffff16611b18611359565b73ffffffffffffffffffffffffffffffffffffffff1614611b6e576040517f08c379a0000000000000000000000000000000000000000000000000000000008152600401611b6590613705565b60405180910390fd5b80600f8190555050565b600c8054611b85906134d1565b80601f0160208091040260200160405190810160405280929190818152602001828054611bb1906134d1565b8015611bfe5780601f10611bd357610100808354040283529160200191611bfe565b820191906000526020600020905b815481529060010190602001808311611be157829003601f168201915b505050505081565b6060611c1182611fc3565b611c50576040517f08c379a0000000000000000000000000000000000000000000000000000000008152600401611c4790613f76565b60405180910390fd5b6000611c5a612581565b90506000815111611c7a5760405180602001604052806000815250611ca0565b8083600c604051602001611c9093929190614087565b6040516020818303038152906040525b915050919050565b611cb061202f565b73ffffffffffffffffffffffffffffffffffffffff16611cce611359565b73ffffffffffffffffffffffffffffffffffffffff1614611d24576040517f08c379a0000000000000000000000000000000000000000000000000000000008152600401611d1b90613705565b60405180910390fd5b80600d8190555050565b600a5481565b611d3c61202f565b73ffffffffffffffffffffffffffffffffffffffff16611d5a611359565b73ffffffffffffffffffffffffffffffffffffffff1614611db0576040517f08c379a0000000000000000000000000000000000000000000000000000000008152600401611da790613705565b60405180910390fd5b80601160006101000a81548160ff02191690831515021790555050565b6000600560008473ffffffffffffffffffffffffffffffffffffffff1673ffffffffffffffffffffffffffffffffffffffff16815260200190815260200160002060008373ffffffffffffffffffffffffffffffffffffffff1673ffffffffffffffffffffffffffffffffffffffff16815260200190815260200160002060009054906101000a900460ff16905092915050565b611e6961202f565b73ffffffffffffffffffffffffffffffffffffffff16611e87611359565b73ffffffffffffffffffffffffffffffffffffffff1614611edd576040517f08c379a0000000000000000000000000000000000000000000000000000000008152600401611ed490613705565b60405180910390fd5b600073ffffffffffffffffffffffffffffffffffffffff168173ffffffffffffffffffffffffffffffffffffffff161415611f4d576040517f08c379a0000000000000000000000000000000000000000000000000000000008152600401611f449061412e565b60405180910390fd5b611f5681612448565b50565b60007f01ffc9a7000000000000000000000000000000000000000000000000000000007bffffffffffffffffffffffffffffffffffffffffffffffffffffffff1916827bffffffffffffffffffffffffffffffffffffffffffffffffffffffff1916149050919050565b60008073ffffffffffffffffffffffffffffffffffffffff166002600084815260200190815260200160002060009054906101000a900473ffffffffffffffffffffffffffffffffffffffff1673ffffffffffffffffffffffffffffffffffffffff1614159050919050565b600033905090565b816004600083815260200190815260200160002060006101000a81548173ffffffffffffffffffffffffffffffffffffffff021916908373ffffffffffffffffffffffffffffffffffffffff160217905550808273ffffffffffffffffffffffffffffffffffffffff166120aa836110c8565b73ffffffffffffffffffffffffffffffffffffffff167f8c5be1e5ebec7d5bd14f71427d1e84f3dd0314c0f7b2291e5b200ac8c7c3b92560405160405180910390a45050565b60006120fb82611fc3565b61213a576040517f08c379a0000000000000000000000000000000000000000000000000000000008152600401612131906141c0565b60405180910390fd5b6000612145836110c8565b90508073ffffffffffffffffffffffffffffffffffffffff168473ffffffffffffffffffffffffffffffffffffffff1614806121b457508373ffffffffffffffffffffffffffffffffffffffff1661219c84610a26565b73ffffffffffffffffffffffffffffffffffffffff16145b806121c557506121c48185611dcd565b5b91505092915050565b8273ffffffffffffffffffffffffffffffffffffffff166121ee826110c8565b73ffffffffffffffffffffffffffffffffffffffff1614612244576040517f08c379a000000000000000000000000000000000000000000000000000000000815260040161223b90614252565b60405180910390fd5b600073ffffffffffffffffffffffffffffffffffffffff168273ffffffffffffffffffffffffffffffffffffffff1614156122b4576040517f08c379a00000000000000000000000000000000000000000000000000000000081526004016122ab906142e4565b60405180910390fd5b6122bf838383612613565b6122ca600082612037565b6001600360008573ffffffffffffffffffffffffffffffffffffffff1673ffffffffffffffffffffffffffffffffffffffff168152602001908152602001600020600082825461231a9190614304565b925050819055506001600360008473ffffffffffffffffffffffffffffffffffffffff1673ffffffffffffffffffffffffffffffffffffffff16815260200190815260200160002060008282546123719190613944565b92505081905550816002600083815260200190815260200160002060006101000a81548173ffffffffffffffffffffffffffffffffffffffff021916908373ffffffffffffffffffffffffffffffffffffffff160217905550808273ffffffffffffffffffffffffffffffffffffffff168473ffffffffffffffffffffffffffffffffffffffff167fddf252ad1be2c89b69c2b068fc378daa952ba7f163c4a11628f55a4df523b3ef60405160405180910390a4505050565b612444828260405180602001604052806000815250612618565b5050565b6000600660009054906101000a900473ffffffffffffffffffffffffffffffffffffffff16905081600660006101000a81548173ffffffffffffffffffffffffffffffffffffffff021916908373ffffffffffffffffffffffffffffffffffffffff1602179055508173ffffffffffffffffffffffffffffffffffffffff168173ffffffffffffffffffffffffffffffffffffffff167f8be0079c531659141344cd1fd0a4f28419497f9722a3daafe3b4186f6b6457e060405160405180910390a35050565b60008261251b8584612673565b1490509392505050565b6125308484846121ce565b61253c848484846126e8565b61257b576040517f08c379a0000000000000000000000000000000000000000000000000000000008152600401612572906143aa565b60405180910390fd5b50505050565b606060108054612590906134d1565b80601f01602080910402602001604051908101604052809291908181526020018280546125bc906134d1565b80156126095780601f106125de57610100808354040283529160200191612609565b820191906000526020600020905b8154815290600101906020018083116125ec57829003601f168201915b5050505050905090565b505050565b612622838361287f565b61262f60008484846126e8565b61266e576040517f08c379a0000000000000000000000000000000000000000000000000000000008152600401612665906143aa565b60405180910390fd5b505050565b60008082905060005b84518110156126dd57600085828151811061269a576126996143ca565b5b602002602001015190508083116126bc576126b58382612a4d565b92506126c9565b6126c68184612a4d565b92505b5080806126d59061399a565b91505061267c565b508091505092915050565b60006127098473ffffffffffffffffffffffffffffffffffffffff16612a64565b15612872578373ffffffffffffffffffffffffffffffffffffffff1663150b7a0261273261202f565b8786866040518563ffffffff1660e01b8152600401612754949392919061444e565b602060405180830381600087803b15801561276e57600080fd5b505af192505050801561279f57506040513d601f19601f8201168201806040525081019061279c91906144af565b60015b612822573d80600081146127cf576040519150601f19603f3d011682016040523d82523d6000602084013e6127d4565b606091505b5060008151141561281a576040517f08c379a0000000000000000000000000000000000000000000000000000000008152600401612811906143aa565b60405180910390fd5b805181602001fd5b63150b7a0260e01b7bffffffffffffffffffffffffffffffffffffffffffffffffffffffff1916817bffffffffffffffffffffffffffffffffffffffffffffffffffffffff191614915050612877565b600190505b949350505050565b600073ffffffffffffffffffffffffffffffffffffffff168273ffffffffffffffffffffffffffffffffffffffff1614156128ef576040517f08c379a00000000000000000000000000000000000000000000000000000000081526004016128e690614528565b60405180910390fd5b6128f881611fc3565b15612938576040517f08c379a000000000000000000000000000000000000000000000000000000000815260040161292f90614594565b60405180910390fd5b61294460008383612613565b6001600360008473ffffffffffffffffffffffffffffffffffffffff1673ffffffffffffffffffffffffffffffffffffffff16815260200190815260200160002060008282546129949190613944565b92505081905550816002600083815260200190815260200160002060006101000a81548173ffffffffffffffffffffffffffffffffffffffff021916908373ffffffffffffffffffffffffffffffffffffffff160217905550808273ffffffffffffffffffffffffffffffffffffffff16600073ffffffffffffffffffffffffffffffffffffffff167fddf252ad1be2c89b69c2b068fc378daa952ba7f163c4a11628f55a4df523b3ef60405160405180910390a45050565b600082600052816020526040600020905092915050565b600080823b905060008111915050919050565b828054612a83906134d1565b90600052602060002090601f016020900481019282612aa55760008555612aec565b82601f10612abe57805160ff1916838001178555612aec565b82800160010185558215612aec579182015b82811115612aeb578251825591602001919060010190612ad0565b5b509050612af99190612afd565b5090565b5b80821115612b16576000816000905550600101612afe565b5090565b6000604051905090565b600080fd5b600080fd5b60007fffffffff0000000000000000000000000000000000000000000000000000000082169050919050565b612b6381612b2e565b8114612b6e57600080fd5b50565b600081359050612b8081612b5a565b92915050565b600060208284031215612b9c57612b9b612b24565b5b6000612baa84828501612b71565b91505092915050565b60008115159050919050565b612bc881612bb3565b82525050565b6000602082019050612be36000830184612bbf565b92915050565b6000819050919050565b612bfc81612be9565b82525050565b6000602082019050612c176000830184612bf3565b92915050565b7f4e487b7100000000000000000000000000000000000000000000000000000000600052602160045260246000fd5b60038110612c5d57612c5c612c1d565b5b50565b6000819050612c6e82612c4c565b919050565b6000612c7e82612c60565b9050919050565b612c8e81612c73565b82525050565b6000602082019050612ca96000830184612c85565b92915050565b600081519050919050565b600082825260208201905092915050565b60005b83811015612ce9578082015181840152602081019050612cce565b83811115612cf8576000848401525b50505050565b6000601f19601f8301169050919050565b6000612d1a82612caf565b612d248185612cba565b9350612d34818560208601612ccb565b612d3d81612cfe565b840191505092915050565b60006020820190508181036000830152612d628184612d0f565b905092915050565b612d7381612be9565b8114612d7e57600080fd5b50565b600081359050612d9081612d6a565b92915050565b600060208284031215612dac57612dab612b24565b5b6000612dba84828501612d81565b91505092915050565b600073ffffffffffffffffffffffffffffffffffffffff82169050919050565b6000612dee82612dc3565b9050919050565b612dfe81612de3565b82525050565b6000602082019050612e196000830184612df5565b92915050565b612e2881612de3565b8114612e3357600080fd5b50565b600081359050612e4581612e1f565b92915050565b60008060408385031215612e6257612e61612b24565b5b6000612e7085828601612e36565b9250506020612e8185828601612d81565b9150509250929050565b600060208284031215612ea157612ea0612b24565b5b6000612eaf84828501612e36565b91505092915050565b600080600060608486031215612ed157612ed0612b24565b5b6000612edf86828701612e36565b9350506020612ef086828701612e36565b9250506040612f0186828701612d81565b9150509250925092565b60008060408385031215612f2257612f21612b24565b5b6000612f3085828601612d81565b9250506020612f4185828601612d81565b9150509250929050565b6000604082019050612f606000830185612df5565b612f6d6020830184612bf3565b9392505050565b600060ff82169050919050565b612f8a81612f74565b8114612f9557600080fd5b50565b600081359050612fa781612f81565b92915050565b600060208284031215612fc357612fc2612b24565b5b6000612fd184828501612f98565b91505092915050565b600080fd5b600080fd5b7f4e487b7100000000000000000000000000000000000000000000000000000000600052604160045260246000fd5b61301c82612cfe565b810181811067ffffffffffffffff8211171561303b5761303a612fe4565b5b80604052505050565b600061304e612b1a565b905061305a8282613013565b919050565b600067ffffffffffffffff82111561307a57613079612fe4565b5b61308382612cfe565b9050602081019050919050565b82818337600083830152505050565b60006130b26130ad8461305f565b613044565b9050828152602081018484840111156130ce576130cd612fdf565b5b6130d9848285613090565b509392505050565b600082601f8301126130f6576130f5612fda565b5b813561310684826020860161309f565b91505092915050565b60006020828403121561312557613124612b24565b5b600082013567ffffffffffffffff81111561314357613142612b29565b5b61314f848285016130e1565b91505092915050565b61316181612bb3565b811461316c57600080fd5b50565b60008135905061317e81613158565b92915050565b6000806040838503121561319b5761319a612b24565b5b60006131a985828601612e36565b92505060206131ba8582860161316f565b9150509250929050565b600080fd5b600080fd5b60008083601f8401126131e4576131e3612fda565b5b8235905067ffffffffffffffff811115613201576132006131c4565b5b60208301915083602082028301111561321d5761321c6131c9565b5b9250929050565b60008060006040848603121561323d5761323c612b24565b5b600084013567ffffffffffffffff81111561325b5761325a612b29565b5b613267868287016131ce565b9350935050602061327a86828701612d81565b9150509250925092565b6000819050919050565b61329781613284565b82525050565b60006020820190506132b2600083018461328e565b92915050565b600067ffffffffffffffff8211156132d3576132d2612fe4565b5b6132dc82612cfe565b9050602081019050919050565b60006132fc6132f7846132b8565b613044565b90508281526020810184848401111561331857613317612fdf565b5b613323848285613090565b509392505050565b600082601f8301126133405761333f612fda565b5b81356133508482602086016132e9565b91505092915050565b6000806000806080858703121561337357613372612b24565b5b600061338187828801612e36565b945050602061339287828801612e36565b93505060406133a387828801612d81565b925050606085013567ffffffffffffffff8111156133c4576133c3612b29565b5b6133d08782880161332b565b91505092959194509250565b6133e581613284565b81146133f057600080fd5b50565b600081359050613402816133dc565b92915050565b60006020828403121561341e5761341d612b24565b5b600061342c848285016133f3565b91505092915050565b60006020828403121561344b5761344a612b24565b5b60006134598482850161316f565b91505092915050565b6000806040838503121561347957613478612b24565b5b600061348785828601612e36565b925050602061349885828601612e36565b9150509250929050565b7f4e487b7100000000000000000000000000000000000000000000000000000000600052602260045260246000fd5b600060028204905060018216806134e957607f821691505b602082108114156134fd576134fc6134a2565b5b50919050565b7f4552433732313a20617070726f76656420717565727920666f72206e6f6e657860008201527f697374656e7420746f6b656e0000000000000000000000000000000000000000602082015250565b600061355f602c83612cba565b915061356a82613503565b604082019050919050565b6000602082019050818103600083015261358e81613552565b9050919050565b7f4552433732313a20617070726f76616c20746f2063757272656e74206f776e6560008201527f7200000000000000000000000000000000000000000000000000000000000000602082015250565b60006135f1602183612cba565b91506135fc82613595565b604082019050919050565b60006020820190508181036000830152613620816135e4565b9050919050565b7f4552433732313a20617070726f76652063616c6c6572206973206e6f74206f7760008201527f6e6572206e6f7220617070726f76656420666f7220616c6c0000000000000000602082015250565b6000613683603883612cba565b915061368e82613627565b604082019050919050565b600060208201905081810360008301526136b281613676565b9050919050565b7f4f776e61626c653a2063616c6c6572206973206e6f7420746865206f776e6572600082015250565b60006136ef602083612cba565b91506136fa826136b9565b602082019050919050565b6000602082019050818103600083015261371e816136e2565b9050919050565b7f4552433732313a207472616e736665722063616c6c6572206973206e6f74206f60008201527f776e6572206e6f7220617070726f766564000000000000000000000000000000602082015250565b6000613781603183612cba565b915061378c82613725565b604082019050919050565b600060208201905081810360008301526137b081613774565b9050919050565b7f4e6f6e6578697374656e7420746f6b656e000000000000000000000000000000600082015250565b60006137ed601183612cba565b91506137f8826137b7565b602082019050919050565b6000602082019050818103600083015261381c816137e0565b9050919050565b7f4e487b7100000000000000000000000000000000000000000000000000000000600052601260045260246000fd5b7f4e487b7100000000000000000000000000000000000000000000000000000000600052601160045260246000fd5b600061388c82612be9565b915061389783612be9565b9250826138a7576138a6613823565b5b828204905092915050565b7f4f6e6365206f6e6c79207472616e73666572206f66207265736572766564206660008201527f756e636c65730000000000000000000000000000000000000000000000000000602082015250565b600061390e602683612cba565b9150613919826138b2565b604082019050919050565b6000602082019050818103600083015261393d81613901565b9050919050565b600061394f82612be9565b915061395a83612be9565b9250827fffffffffffffffffffffffffffffffffffffffffffffffffffffffffffffffff0382111561398f5761398e613852565b5b828201905092915050565b60006139a582612be9565b91507fffffffffffffffffffffffffffffffffffffffffffffffffffffffffffffffff8214156139d8576139d7613852565b5b600182019050919050565b7f4552433732313a206f776e657220717565727920666f72206e6f6e657869737460008201527f656e7420746f6b656e0000000000000000000000000000000000000000000000602082015250565b6000613a3f602983612cba565b9150613a4a826139e3565b604082019050919050565b60006020820190508181036000830152613a6e81613a32565b9050919050565b7f4552433732313a2062616c616e636520717565727920666f7220746865207a6560008201527f726f206164647265737300000000000000000000000000000000000000000000602082015250565b6000613ad1602a83612cba565b9150613adc82613a75565b604082019050919050565b60006020820190508181036000830152613b0081613ac4565b9050919050565b7f74686520636f6e747261637420697320706175736564206f72206f6e6c79206660008201527f756e6c6973742073616c65000000000000000000000000000000000000000000602082015250565b6000613b63602b83612cba565b9150613b6e82613b07565b604082019050919050565b60006020820190508181036000830152613b9281613b56565b9050919050565b7f6d6178206d696e7420616d6f756e74207065722073657373696f6e206578636560008201527f6564656400000000000000000000000000000000000000000000000000000000602082015250565b6000613bf5602483612cba565b9150613c0082613b99565b604082019050919050565b60006020820190508181036000830152613c2481613be8565b9050919050565b7f6d6178204e4654206c696d697420657863656564656400000000000000000000600082015250565b6000613c61601683612cba565b9150613c6c82613c2b565b602082019050919050565b60006020820190508181036000830152613c9081613c54565b9050919050565b6000613ca282612be9565b9150613cad83612be9565b9250817fffffffffffffffffffffffffffffffffffffffffffffffffffffffffffffffff0483118215151615613ce657613ce5613852565b5b828202905092915050565b7f696e73756666696369656e742066756e64730000000000000000000000000000600082015250565b6000613d27601283612cba565b9150613d3282613cf1565b602082019050919050565b60006020820190508181036000830152613d5681613d1a565b9050919050565b7f4552433732313a20617070726f766520746f2063616c6c657200000000000000600082015250565b6000613d93601983612cba565b9150613d9e82613d5d565b602082019050919050565b60006020820190508181036000830152613dc281613d86565b9050919050565b60008160601b9050919050565b6000613de182613dc9565b9050919050565b6000613df382613dd6565b9050919050565b613e0b613e0682612de3565b613de8565b82525050565b6000613e1d8284613dfa565b60148201915081905092915050565b7f4164647265737320646f6573206e6f7420657869737420696e206c6973740000600082015250565b6000613e62601e83612cba565b9150613e6d82613e2c565b602082019050919050565b60006020820190508181036000830152613e9181613e55565b9050919050565b7f496e636f7272656374204554482076616c75652073656e740000000000000000600082015250565b6000613ece601883612cba565b9150613ed982613e98565b602082019050919050565b60006020820190508181036000830152613efd81613ec1565b9050919050565b7f4552433732314d657461646174613a2055524920717565727920666f72206e6f60008201527f6e6578697374656e7420746f6b656e0000000000000000000000000000000000602082015250565b6000613f60602f83612cba565b9150613f6b82613f04565b604082019050919050565b60006020820190508181036000830152613f8f81613f53565b9050919050565b600081905092915050565b6000613fac82612caf565b613fb68185613f96565b9350613fc6818560208601612ccb565b80840191505092915050565b6000819050919050565b613fed613fe882612be9565b613fd2565b82525050565b60008190508160005260206000209050919050565b60008154614015816134d1565b61401f8186613f96565b9450600182166000811461403a576001811461404b5761407e565b60ff1983168652818601935061407e565b61405485613ff3565b60005b8381101561407657815481890152600182019150602081019050614057565b838801955050505b50505092915050565b60006140938286613fa1565b915061409f8285613fdc565b6020820191506140af8284614008565b9150819050949350505050565b7f4f776e61626c653a206e6577206f776e657220697320746865207a65726f206160008201527f6464726573730000000000000000000000000000000000000000000000000000602082015250565b6000614118602683612cba565b9150614123826140bc565b604082019050919050565b600060208201905081810360008301526141478161410b565b9050919050565b7f4552433732313a206f70657261746f7220717565727920666f72206e6f6e657860008201527f697374656e7420746f6b656e0000000000000000000000000000000000000000602082015250565b60006141aa602c83612cba565b91506141b58261414e565b604082019050919050565b600060208201905081810360008301526141d98161419d565b9050919050565b7f4552433732313a207472616e73666572206f6620746f6b656e2074686174206960008201527f73206e6f74206f776e0000000000000000000000000000000000000000000000602082015250565b600061423c602983612cba565b9150614247826141e0565b604082019050919050565b6000602082019050818103600083015261426b8161422f565b9050919050565b7f4552433732313a207472616e7366657220746f20746865207a65726f2061646460008201527f7265737300000000000000000000000000000000000000000000000000000000602082015250565b60006142ce602483612cba565b91506142d982614272565b604082019050919050565b600060208201905081810360008301526142fd816142c1565b9050919050565b600061430f82612be9565b915061431a83612be9565b92508282101561432d5761432c613852565b5b828203905092915050565b7f4552433732313a207472616e7366657220746f206e6f6e20455243373231526560008201527f63656976657220696d706c656d656e7465720000000000000000000000000000602082015250565b6000614394603283612cba565b915061439f82614338565b604082019050919050565b600060208201905081810360008301526143c381614387565b9050919050565b7f4e487b7100000000000000000000000000000000000000000000000000000000600052603260045260246000fd5b600081519050919050565b600082825260208201905092915050565b6000614420826143f9565b61442a8185614404565b935061443a818560208601612ccb565b61444381612cfe565b840191505092915050565b60006080820190506144636000830187612df5565b6144706020830186612df5565b61447d6040830185612bf3565b818103606083015261448f8184614415565b905095945050505050565b6000815190506144a981612b5a565b92915050565b6000602082840312156144c5576144c4612b24565b5b60006144d38482850161449a565b91505092915050565b7f4552433732313a206d696e7420746f20746865207a65726f2061646472657373600082015250565b6000614512602083612cba565b915061451d826144dc565b602082019050919050565b6000602082019050818103600083015261454181614505565b9050919050565b7f4552433732313a20746f6b656e20616c7265616479206d696e74656400000000600082015250565b600061457e601c83612cba565b915061458982614548565b602082019050919050565b600060208201905081810360008301526145ad81614571565b905091905056fea26469706673582212206b4871351b9b02acf3a0e47c9c00723d30237e08f6df44d1f43123eb24d81fad64736f6c6343000809003368747470733a2f2f66756e636c65732e6d7970696e6174612e636c6f75642f697066732f516d534e37365654374c474d4134665a576d6e394e507075524443377866526d4c4d6d394e5150325250613835532f",
  "linkReferences": {},
  "deployedLinkReferences": {}
}